{
  "address": "0x6C7C80Ec1b21c3ac721541d4337496306317d71b",
  "abi": [
    {
      "inputs": [
        {
          "internalType": "address",
          "name": "_priceFeedAddress",
          "type": "address"
        }
      ],
      "stateMutability": "nonpayable",
      "type": "constructor"
    },
    {
      "inputs": [],
      "name": "Charity__DonationIsClosed",
      "type": "error"
    },
    {
      "inputs": [],
      "name": "Charity__DonationNotRefundable",
      "type": "error"
    },
    {
      "inputs": [],
      "name": "Charity__InsufficientFund",
      "type": "error"
    },
    {
      "inputs": [],
      "name": "Charity__NotEnoughAmountEntered",
      "type": "error"
    },
    {
      "inputs": [],
      "name": "Charity__NotOwner",
      "type": "error"
    },
    {
      "inputs": [],
      "name": "Charity__TransferedFailed",
      "type": "error"
    },
    {
      "anonymous": false,
      "inputs": [
        {
          "indexed": true,
          "internalType": "bytes32",
          "name": "donationId",
          "type": "bytes32"
        },
        {
          "indexed": true,
          "internalType": "address",
          "name": "donater",
          "type": "address"
        },
        {
          "indexed": true,
          "internalType": "uint256",
          "name": "amount",
          "type": "uint256"
        },
        {
          "indexed": false,
          "internalType": "string",
          "name": "message",
          "type": "string"
        },
        {
          "indexed": false,
          "internalType": "uint256",
          "name": "timestamp",
          "type": "uint256"
        }
      ],
      "name": "Donate",
      "type": "event"
    },
    {
      "anonymous": false,
      "inputs": [
        {
          "indexed": true,
          "internalType": "bytes32",
          "name": "donationId",
          "type": "bytes32"
        },
        {
          "indexed": true,
          "internalType": "address",
          "name": "creator",
          "type": "address"
        },
        {
          "indexed": true,
          "internalType": "string",
          "name": "title",
          "type": "string"
        },
        {
          "indexed": false,
          "internalType": "uint256",
          "name": "timestamp",
          "type": "uint256"
        }
      ],
      "name": "DonationCreated",
      "type": "event"
    },
    {
      "anonymous": false,
      "inputs": [
        {
          "indexed": true,
          "internalType": "bytes32",
          "name": "donationId",
          "type": "bytes32"
        },
        {
          "indexed": false,
          "internalType": "address",
          "name": "target",
          "type": "address"
        },
        {
          "indexed": false,
          "internalType": "uint256",
          "name": "donationAmount",
          "type": "uint256"
        }
      ],
      "name": "DonationEnded",
      "type": "event"
    },
    {
      "anonymous": false,
      "inputs": [
        {
          "indexed": true,
          "internalType": "bytes32",
          "name": "donationId",
          "type": "bytes32"
        },
        {
          "indexed": true,
          "internalType": "address",
          "name": "donater",
          "type": "address"
        },
        {
          "indexed": false,
          "internalType": "uint256",
          "name": "amount",
          "type": "uint256"
        }
      ],
      "name": "RefundClaimed",
      "type": "event"
    },
    {
      "anonymous": false,
      "inputs": [
        {
          "indexed": true,
          "internalType": "bytes32",
          "name": "donationId",
          "type": "bytes32"
        },
        {
          "indexed": true,
          "internalType": "string",
          "name": "message",
          "type": "string"
        }
      ],
      "name": "RefundIssued",
      "type": "event"
    },
    {
      "anonymous": false,
      "inputs": [
        {
          "indexed": true,
          "internalType": "bytes32",
          "name": "donationId",
          "type": "bytes32"
        }
      ],
      "name": "TargetAchieved",
      "type": "event"
    },
    {
      "anonymous": false,
      "inputs": [
        {
          "indexed": true,
          "internalType": "bytes32",
          "name": "donationId",
          "type": "bytes32"
        },
        {
          "indexed": true,
          "internalType": "uint256",
          "name": "time",
          "type": "uint256"
        }
      ],
      "name": "TimeExtended",
      "type": "event"
    },
    {
      "anonymous": false,
      "inputs": [
        {
          "indexed": true,
          "internalType": "bytes32",
          "name": "donationId",
          "type": "bytes32"
        },
        {
          "indexed": true,
          "internalType": "uint256",
          "name": "withdrawAmount",
          "type": "uint256"
        }
      ],
      "name": "Withdrawed",
      "type": "event"
    },
    {
      "inputs": [
        {
          "internalType": "bytes32",
          "name": "donationId",
          "type": "bytes32"
        },
        {
          "internalType": "address",
          "name": "donater",
          "type": "address"
        }
      ],
      "name": "claimRefund",
      "outputs": [],
      "stateMutability": "nonpayable",
      "type": "function"
    },
    {
      "inputs": [
        {
          "internalType": "string",
          "name": "_title",
          "type": "string"
        },
        {
          "internalType": "uint256",
          "name": "_priceTarget",
          "type": "uint256"
        },
        {
          "internalType": "uint256",
          "name": "_endTime",
          "type": "uint256"
        },
        {
          "internalType": "address",
          "name": "_target",
          "type": "address"
        },
        {
          "internalType": "string",
          "name": "_description",
          "type": "string"
        },
        {
          "internalType": "enum Charity.DonationCategory",
          "name": "_category",
          "type": "uint8"
        },
        {
          "internalType": "string",
          "name": "_imgUrl",
          "type": "string"
        }
      ],
      "name": "createDonation",
      "outputs": [],
      "stateMutability": "nonpayable",
      "type": "function"
    },
    {
      "inputs": [
        {
          "internalType": "bytes32",
          "name": "donationId",
          "type": "bytes32"
        },
        {
          "internalType": "string",
          "name": "_message",
          "type": "string"
        }
      ],
      "name": "donate",
      "outputs": [],
      "stateMutability": "payable",
      "type": "function"
    },
    {
      "inputs": [
        {
          "internalType": "bytes32",
          "name": "donationId",
          "type": "bytes32"
        }
      ],
      "name": "endDonation",
      "outputs": [],
      "stateMutability": "nonpayable",
      "type": "function"
    },
    {
      "inputs": [],
      "name": "getAllDonationHistory",
      "outputs": [
        {
          "components": [
            {
              "internalType": "bytes32",
              "name": "donationId",
              "type": "bytes32"
            },
            {
              "internalType": "address",
              "name": "donater",
              "type": "address"
            },
            {
              "internalType": "uint256",
              "name": "amount",
              "type": "uint256"
            },
            {
              "internalType": "string",
              "name": "message",
              "type": "string"
            },
            {
              "internalType": "uint256",
              "name": "timestamp",
              "type": "uint256"
            }
          ],
          "internalType": "struct Charity.DonationHistory[]",
          "name": "",
          "type": "tuple[]"
        }
      ],
      "stateMutability": "view",
      "type": "function"
    },
    {
      "inputs": [
        {
          "internalType": "uint256",
          "name": "ethAmount",
          "type": "uint256"
        }
      ],
      "name": "getConvertedEthAmount",
      "outputs": [
        {
          "internalType": "uint256",
          "name": "",
          "type": "uint256"
        }
      ],
      "stateMutability": "view",
      "type": "function"
    },
    {
      "inputs": [
        {
          "internalType": "bytes32",
          "name": "donationId",
          "type": "bytes32"
        },
        {
          "internalType": "address",
          "name": "owner",
          "type": "address"
        }
      ],
      "name": "getDonationAmount",
      "outputs": [
        {
          "internalType": "uint256",
          "name": "",
          "type": "uint256"
        }
      ],
      "stateMutability": "view",
      "type": "function"
    },
    {
      "inputs": [
        {
          "internalType": "uint256",
          "name": "index",
          "type": "uint256"
        }
      ],
      "name": "getDonationDetails",
      "outputs": [
        {
          "internalType": "bytes32",
          "name": "id",
          "type": "bytes32"
        },
        {
          "internalType": "address",
          "name": "owner",
          "type": "address"
        },
        {
          "internalType": "address",
          "name": "donationTarget",
          "type": "address"
        },
        {
          "internalType": "string",
          "name": "title",
          "type": "string"
        },
        {
          "internalType": "uint256",
          "name": "priceTarget",
          "type": "uint256"
        },
        {
          "internalType": "string",
          "name": "description",
          "type": "string"
        },
        {
          "internalType": "uint256",
          "name": "endTime",
          "type": "uint256"
        },
        {
          "internalType": "enum Charity.DonationState",
          "name": "state",
          "type": "uint8"
        },
        {
          "internalType": "enum Charity.DonationCategory",
          "name": "category",
          "type": "uint8"
        },
        {
          "internalType": "bool",
          "name": "refundable",
          "type": "bool"
        },
        {
          "internalType": "string",
          "name": "refundMessage",
          "type": "string"
        },
        {
          "internalType": "uint256",
          "name": "donationRaised",
          "type": "uint256"
        },
        {
          "internalType": "uint256",
          "name": "donationWithdrawed",
          "type": "uint256"
        },
        {
          "internalType": "address[]",
          "name": "donater",
          "type": "address[]"
        },
        {
          "internalType": "string",
          "name": "imgUrl",
          "type": "string"
        }
      ],
      "stateMutability": "view",
      "type": "function"
    },
    {
      "inputs": [
        {
          "internalType": "bytes32",
          "name": "donationId",
          "type": "bytes32"
        },
        {
          "internalType": "address",
          "name": "owner",
          "type": "address"
        }
      ],
      "name": "getDonationHistory",
      "outputs": [
        {
          "components": [
            {
              "internalType": "bytes32",
              "name": "donationId",
              "type": "bytes32"
            },
            {
              "internalType": "address",
              "name": "donater",
              "type": "address"
            },
            {
              "internalType": "uint256",
              "name": "amount",
              "type": "uint256"
            },
            {
              "internalType": "string",
              "name": "message",
              "type": "string"
            },
            {
              "internalType": "uint256",
              "name": "timestamp",
              "type": "uint256"
            }
          ],
          "internalType": "struct Charity.DonationHistory[]",
          "name": "",
          "type": "tuple[]"
        }
      ],
      "stateMutability": "view",
      "type": "function"
    },
    {
      "inputs": [],
      "name": "getDonationHistoryLength",
      "outputs": [
        {
          "internalType": "uint256",
          "name": "",
          "type": "uint256"
        }
      ],
      "stateMutability": "view",
      "type": "function"
    },
    {
      "inputs": [
        {
          "internalType": "bytes32",
          "name": "donationId",
          "type": "bytes32"
        }
      ],
      "name": "getDonationIndexById",
      "outputs": [
        {
          "internalType": "uint256",
          "name": "",
          "type": "uint256"
        }
      ],
      "stateMutability": "view",
      "type": "function"
    },
    {
      "inputs": [
        {
          "internalType": "address",
          "name": "owner",
          "type": "address"
        }
      ],
      "name": "getDonationIndexByOwner",
      "outputs": [
        {
          "internalType": "uint256[]",
          "name": "",
          "type": "uint256[]"
        }
      ],
      "stateMutability": "view",
      "type": "function"
    },
    {
      "inputs": [],
      "name": "getDonationLength",
      "outputs": [
        {
          "internalType": "uint256",
          "name": "",
          "type": "uint256"
        }
      ],
      "stateMutability": "view",
      "type": "function"
    },
    {
      "inputs": [],
      "name": "getEthUsdPrice",
      "outputs": [
        {
          "internalType": "uint256",
          "name": "",
          "type": "uint256"
        }
      ],
      "stateMutability": "view",
      "type": "function"
    },
    {
      "inputs": [
        {
          "internalType": "uint256",
          "name": "index",
          "type": "uint256"
        }
      ],
      "name": "getOwner",
      "outputs": [
        {
          "internalType": "address",
          "name": "",
          "type": "address"
        }
      ],
      "stateMutability": "view",
      "type": "function"
    },
    {
      "inputs": [],
      "name": "getOwnerLength",
      "outputs": [
        {
          "internalType": "uint256",
          "name": "",
          "type": "uint256"
        }
      ],
      "stateMutability": "view",
      "type": "function"
    },
    {
      "inputs": [],
      "name": "getPriceFeed",
      "outputs": [
        {
          "internalType": "contract AggregatorV3Interface",
          "name": "",
          "type": "address"
        }
      ],
      "stateMutability": "view",
      "type": "function"
    },
    {
      "inputs": [
        {
          "internalType": "bytes32",
          "name": "donationId",
          "type": "bytes32"
        },
        {
          "internalType": "string",
          "name": "_message",
          "type": "string"
        }
      ],
      "name": "issueRefund",
      "outputs": [],
      "stateMutability": "nonpayable",
      "type": "function"
    },
    {
      "inputs": [
        {
          "internalType": "bytes32",
          "name": "donationId",
          "type": "bytes32"
        },
        {
          "internalType": "uint256",
          "name": "_newEndTime",
          "type": "uint256"
        }
      ],
      "name": "setDonationTime",
      "outputs": [],
      "stateMutability": "nonpayable",
      "type": "function"
    },
    {
      "inputs": [
        {
          "internalType": "bytes32",
          "name": "donationId",
          "type": "bytes32"
        },
        {
          "internalType": "uint256",
          "name": "withdrawalAmount",
          "type": "uint256"
        }
      ],
      "name": "withdraw",
      "outputs": [],
      "stateMutability": "nonpayable",
      "type": "function"
    }
  ],
  "transactionHash": "0xc7e14328078a793adfc21d04ab88f28423526b2e663684e18b2df98b96b89cfd",
  "args": [
    "0x694AA1769357215DE4FAC081bf1f309aDC325306"
  ],
  "numDeployments": 5,
  "solcInputHash": "c849b4dde075b7ba3e1af23994900762",
  "bytecode": "0x60a03461008657601f6120b638819003918201601f19168301916001600160401b0383118484101761008b5780849260209460405283398101031261008657516001600160a01b0381169081900361008657600160005560805260405161201490816100a2823960805181818161097a0152818161116c015281816111b301526111ed0152f35b600080fd5b634e487b7160e01b600052604160045260246000fdfe6080604052600436101561001257600080fd5b60003560e01c8063040cf02014611a375780630f8af540146119e2578063219a9427146119c457806323290bad1461165d57806333c563ce1461158057806344a6a8f0146115625780634ba34d0e146113ff578063504397d91461130f57806374ceeb5a1461123a57806392d1b8d11461121c5780639e87a5cd146111d7578063a0a8045e1461119b578063adb6721214611154578063b78699fd14611128578063c41a360a146110b6578063c6b4968814610fb4578063cb640f0114610ef6578063e374c35814610912578063eb564d351461071c5763f1ca70cf146100f857600080fd5b346107175760e0366003190112610717576004356001600160401b03811161071757610128903690600401611bae565b60243590606435906001600160a01b0382168203610717576084356001600160401b0381116107175761015f903690600401611bae565b9160a4359360098510156107175760c4356001600160401b0381116107175761018c903690600401611bae565b9060015492600160401b8410156106335760018401806001556101ae85611d07565b505084116106495760405160208101903360601b82524260348201526101f460548289516101e3818c60208686019101611c27565b81010301601f198101835282611b72565b5190209561020185611d07565b508781556001810180546001600160a01b03191633179055865190939060038501906001600160401b0381116106335761023b8254611dbc565b601f81116106cf575b50806020601f821160011461066a5760009161065f575b508160011b916000199060031b1c19161790555b670de0b6b3a7640000810290808204670de0b6b3a764000014901517156106495760048401556044356006840155805160058401916001600160401b038211610633576102bc8354611dbc565b601f81116105eb575b50602090601f831160011461057f57600c959493929160009183610574575b50508160011b916000199060031b1c19161790555b6007820180546002840180546001600160a01b0319166001600160a01b0390941693909317909255600060098401819055600a840181905562ffffff1990921660089990991b61ff00169890981790975582519101916001600160401b0382116105605781906103698454611dbc565b601f8111610510575b50602090601f83116001146104ad5788926104a2575b50508160011b916000199060031b1c19161790555b338452600360205260408420541561044c575b338452600360205260408420805490600160401b82101561043857816103e0916001610407969594018155611eba565b81549060031b9083821b91600019901b191617905583855260046020526040852055611df6565b90604051904282527fb18b2d065ea44391773e0b2098aa58241a4799200d97ba6fcfbf7cae8048bb1160203393a480f35b634e487b7160e01b86526041600452602486fd5b600554600160401b81101561048e5780600161046d92016005556005611eba565b81546001600160a01b0360039290921b91821b19163390911b1790556103b0565b634e487b7160e01b85526041600452602485fd5b015190503880610388565b8489528189209250601f198416895b8181106104f857509084600195949392106104df575b505050811b01905561039d565b015160001960f88460031b161c191690553880806104d2565b929360206001819287860151815501950193016104bc565b90915083885260208820601f840160051c81019160208510610556575b90601f859493920160051c01905b8181106105485750610372565b89815584935060010161053b565b909150819061052d565b634e487b7160e01b87526041600452602487fd5b0151905038806102e4565b90601f1983169184600052816000209260005b8181106105d35750916001939185600c9998979694106105ba575b505050811b0190556102f9565b015160001960f88460031b161c191690553880806105ad565b92936020600181928786015181550195019301610592565b836000526020600020601f840160051c81019160208510610629575b601f0160051c01905b81811061061d57506102c5565b60008155600101610610565b9091508190610607565b634e487b7160e01b600052604160045260246000fd5b634e487b7160e01b600052601160045260246000fd5b90508901513861025b565b60008481528181209250601f198416905b8c8282106106b7575050908360019493921061069e575b5050811b01905561026f565b8b015160001960f88460031b161c191690553880610692565b6001849560209395849301518155019401920161067b565b826000526020600020601f830160051c8101916020841061070d575b601f0160051c01905b8181106107015750610244565b600081556001016106f4565b90915081906106eb565b600080fd5b3461071757602036600319011261071757610738600435611d07565b508054600182015460028301546004840154600685015460078601546009870154600a8801546001600160a01b0395861698959096169590949290919061078160038501611e16565b9461078e60058601611e16565b9061079b60088701611e16565b966040519b8c9788600b8201549e8f8152602001809f600b840160005260206000209060005b8181106108f057505050036107d6908a611b72565b600c016107e290611e16565b9a6040519c8d5260208d015260408c015260608b016101e090526101e08b0161080a91611c4a565b9060808b015289810360a08b015261082191611c4a565b9060c089015260ff8216600211156108da5760ff821660e0890152600960ff8360081c1610156108da5760209460ff838161087a9560081c166101008c015260101c1615156101208a01528882036101408a0152611c4a565b936101608701526101808601528483036101a0860152519182815201939060005b8181106108bb5784806108b788878382036101c0850152611c4a565b0390f35b82516001600160a01b031686526020958601959092019160010161089b565b634e487b7160e01b600052602160045260246000fd5b82546001600160a01b031684528d9450602090930192600192830192016107c1565b61091b36611bf5565b90806000526004602052610933604060002054611d07565b5081600052600460205260ff600761094f604060002054611d07565b5001541660028110156108da57600114908115610ee7575b50610ed657678ac7230489e8000061099f7f000000000000000000000000000000000000000000000000000000000000000034611f96565b10610ec5578060005260046020526109bb604060002054611d07565b50336000908152600e8201602081905260409091205460ff1615610e66575b50604051926109e884611b57565b82845260208401903382526040850194348652606081019582875260808201904282526040600060018060a01b0333168152600d880160205220805490600160401b8210156106335760018201808255821015610d8d5760009081526020902084516005929092020190815585516001820180546001600160a01b0319166001600160a01b0392909216919091179055815160028201558851805160038301916001600160401b038211610633578190610aa28454611dbc565b601f8111610e13575b50602090601f8311600114610dae57600092610da3575b50508160011b916000199060031b1c19161790555b6004835191015560018060a01b033316600052600f86016020526040600020610b01348254611daf565b90556009860194610b13348754611daf565b8655600254600160401b811015610633576001810180600255811015610d8d57600260005293516005949094027f405787fa12a823e0f2b7631cc41b3ba8828b3321ca811111fa75cd3aa3bb5ace810194855590517f405787fa12a823e0f2b7631cc41b3ba8828b3321ca811111fa75cd3aa3bb5acf820180546001600160a01b0319166001600160a01b039290921691909117905590517f405787fa12a823e0f2b7631cc41b3ba8828b3321ca811111fa75cd3aa3bb5ad08201559651805190977f405787fa12a823e0f2b7631cc41b3ba8828b3321ca811111fa75cd3aa3bb5ad101906001600160401b03811161063357610c108254611dbc565b601f8111610d45575b50602098601f8211600114610cd7579080600498999a89959493600092610ccc575b50508160011b916000199060031b1c19161790555b51910155610c6960405191604083526040830190611c4a565b426020830152857feb43ba6d7ac5e70ea86628faefe271b36c1dcc06d3fc7302cc50f780cbd5b4cf34938033940390a4549101541115610ca557005b7fd3e888a585d2260ae28f0b9e1a09a775028d9935a2d1c6234c60fb5232d3d36b600080a2005b015190508b80610c3b565b98601f1982169083600052806000209160005b818110610d2d575091839160049a9b9c8b97969560019510610d14575b505050811b019055610c50565b015160001960f88460031b161c191690558b8080610d07565b91926020600181928f87015181550194019201610cea565b826000526020600020601f830160051c81019160208410610d83575b601f0160051c01905b818110610d775750610c19565b60008155600101610d6a565b9091508190610d61565b634e487b7160e01b600052603260045260246000fd5b015190508c80610ac2565b60008581528281209350601f198516905b818110610dfb5750908460019594939210610de2575b505050811b019055610ad7565b015160001960f88460031b161c191690558c8080610dd5565b92936020600181928786015181550195019301610dbf565b909150836000526020600020601f840160051c81019160208510610e5c575b90601f859493920160051c01905b818110610e4d5750610aab565b60008155849350600101610e40565b9091508190610e32565b600b82018054600160401b81101561063357610e8791600182018155611eba565b81546001600160a01b0360039290921b91821b1916339182901b17909155600090815260209190915260409020805460ff19166001179055836109da565b63cad6d87b60e01b60005260046000fd5b63f36bf02f60e01b60005260046000fd5b60069150015442101583610967565b34610717576020366003190112610717576004356001600160a01b0381169081900361071757600052600360205260406000206040518060208354918281520190819360005260206000209060005b818110610f9e5750505081610f5b910382611b72565b6040519182916020830190602084525180915260408301919060005b818110610f85575050500390f35b8251845285945060209384019390920191600101610f77565b8254845260209093019260019283019201610f45565b3461071757604036600319011261071757600435610fd0611b41565b90610fe060026000541415611d26565b6002600055806000526004602052610ffc604060002054611d07565b509160ff600784015460101c16156110a5576001600160a01b0381166000908152600f84016020526040812080549190556009909301805461103f908590611d72565b90556001600160a01b031691600080808084875af161105c611d7f565b50156110945760207fe950d47bcc1a745a8ef1d8b86486b400a99681910425d126eb1a006d61f341b291604051908152a36001600055005b6384e8b60d60e01b60005260046000fd5b631da9328560e31b60005260046000fd5b34610717576020366003190112610717576004356000906005548110156111145760059091527f036b6384b5eca791c62761152d0c79bb0604c104a5fb6f4eb0703f3154bb3db001546040516001600160a01b039091168152602090f35b634e487b7160e01b82526032600452602482fd5b346107175760203660031901126107175760043560005260046020526020604060002054604051908152f35b346107175760203660031901126107175760206111937f0000000000000000000000000000000000000000000000000000000000000000600435611f96565b604051908152f35b346107175760003660031901126107175760206111937f0000000000000000000000000000000000000000000000000000000000000000611ee9565b34610717576000366003190112610717576040517f00000000000000000000000000000000000000000000000000000000000000006001600160a01b03168152602090f35b34610717576000366003190112610717576020600554604051908152f35b34610717576000366003190112610717576002546001600160401b038111610633576040519061127060208260051b0183611b72565b8082526020820160026000527f405787fa12a823e0f2b7631cc41b3ba8828b3321ca811111fa75cd3aa3bb5ace6000915b8383106112b657604051806108b78782611c6f565b600560206001926040516112c981611b57565b85548152848060a01b03858701541683820152600286015460408201526112f260038701611e16565b6060820152600486015460808201528152019201920191906112a1565b3461071757604036600319011261071757600d61132a611b41565b6004356000526004602052611343604060002054611d07565b509060018060a01b031660005201602052604060002080546001600160401b038111610633576040519161137d60208360051b0184611b72565b818352602083019060005260206000206000915b8383106113a657604051806108b78782611c6f565b600560206001926040516113b981611b57565b85548152848060a01b03858701541683820152600286015460408201526113e260038701611e16565b606082015260048601546080820152815201920192019190611391565b346107175760203660031901126107175760043580600052600460205261142a604060002054611d07565b50600101546001600160a01b0316330361155157806000526004602052611455604060002054611d07565b5081600052600460205260ff6007611471604060002054611d07565b5001541660028110156108da57600114908115611542575b50610ed65761149d60026000541415611d26565b60026000558060005260046020526114b9604060002054611d07565b5060078101600160ff1982541617815560ff600960018060a01b03600285015416930154915460101c161560001461152857600080808084865af16114fc611d7f565b501561109457600080516020611fbf833981519152916040915b82519182526020820152a26001600055005b506040600080516020611fbf833981519152916000611516565b60069150015442101582611489565b6331d6913f60e21b60005260046000fd5b34610717576000366003190112610717576020600154604051908152f35b346107175761158e36611b2b565b908060005260046020526115a6604060002054611d07565b50600101546001600160a01b03163303611551578060005260046020526115d1604060002054611d07565b5081600052600460205260ff60076115ed604060002054611d07565b5001541660028110156108da5760011490811561164e575b50610ed657806000526004602052816006611624604060002054611d07565b5001557f9e9d7529fa48efff4493c1d4dfb3657b6a7595aead269645ba582b05b6ad453a600080a3005b60069150015442101583611605565b346107175761166b36611bf5565b90806000526004602052611683604060002054611d07565b50600101546001600160a01b03163303611551578060005260046020526116ae604060002054611d07565b5081600052600460205260ff60076116ca604060002054611d07565b5001541660028110156108da576001149081156119b5575b50610ed6578060005260046020526116fe604060002054611d07565b50600a810154158015906119a9575b6110a55760078101805462ff0000191662010000179055825192906008016001600160401b038411610633576117438154611dbc565b601f8111611961575b50602093601f81116001146118fd5780919293946000916118f2575b508160011b916000199060031b1c19161790555b816000526004602052611793604060002054611d07565b5060010154336001600160a01b0390911603611551578160005260046020526117c0604060002054611d07565b5082600052600460205260ff60076117dc604060002054611d07565b5001541660028110156108da576001149081156118e3575b50610ed65761180860026000541415611d26565b6002600055816000526004602052611824604060002054611d07565b509060078201600160ff198254161781558360ff600960018060a01b03600287015416950154925460101c16156000146118c55750600080808084875af161186a611d7f565b501561109457600080516020611fbf833981519152604061189d9486935b82519182526020820152a26001600055611df6565b907ffe782767a18e03fd9e4a871b988fc4143e8858b5961d7c8633db9c04c48f0705600080a3005b9050600080516020611fbf833981519152604061189d946000611888565b600691500154421015836117f4565b905083015185611768565b601f1981169482600052806000209060005b87811061194957508260019495969710611930575b5050811b01905561177c565b85015160001960f88460031b161c191690558580611924565b9091602060018192858901518155019301910161190f565b816000526020600020601f860160051c8101916020871061199f575b601f0160051c01905b818110611993575061174c565b60008155600101611986565b909150819061197d565b5060098101541561170d565b600691500154421015836116e2565b34610717576000366003190112610717576020600254604051908152f35b3461071757604036600319011261071757600f6119fd611b41565b6004356000526004602052611a16604060002054611d07565b509060018060a01b0316600052016020526020604060002054604051908152f35b3461071757611a4536611b2b565b90806000526004602052611a5d604060002054611d07565b50600101546001600160a01b0316330361155157611a8060026000541415611d26565b6002600055806000526004602052611a9c604060002054611d07565b5060098101549083611ab4600a830193845490611d72565b10611b1a576002015460009081908190819087906001600160a01b03165af1611adb611d7f565b501561109457611aec838254611daf565b90557fbb5fbfc6738a2b26ac08576408e436dfe89ae797a31d71918a648ab61460ed6c600080a36001600055005b635be22f4560e01b60005260046000fd5b6040906003190112610717576004359060243590565b602435906001600160a01b038216820361071757565b60a081019081106001600160401b0382111761063357604052565b90601f801991011681019081106001600160401b0382111761063357604052565b6001600160401b03811161063357601f01601f191660200190565b81601f8201121561071757803590611bc582611b93565b92611bd36040519485611b72565b8284526020838301011161071757816000926020809301838601378301015290565b9060406003198301126107175760043591602435906001600160401b03821161071757611c2491600401611bae565b90565b60005b838110611c3a5750506000910152565b8181015183820152602001611c2a565b90602091611c6381518092818552858086019101611c27565b601f01601f1916010190565b602081016020825282518091526040820191602060408360051b8301019401926000915b838310611ca257505050505090565b9091929394602080600192603f1985820301865288519081518152848060a01b0383830151168382015260408201516040820152608080611cf2606085015160a0606086015260a0850190611c4a565b93015191015297019301930191939290611c93565b600154811015610d8d57600160005260206000209060041b0190600090565b15611d2d57565b60405162461bcd60e51b815260206004820152601f60248201527f5265656e7472616e637947756172643a207265656e7472616e742063616c6c006044820152606490fd5b9190820391821161064957565b3d15611daa573d90611d9082611b93565b91611d9e6040519384611b72565b82523d6000602084013e565b606090565b9190820180921161064957565b90600182811c92168015611dec575b6020831014611dd657565b634e487b7160e01b600052602260045260246000fd5b91607f1691611dcb565b611e0e90602060405192828480945193849201611c27565b810103902090565b9060405191826000825492611e2a84611dbc565b8084529360018116908115611e985750600114611e51575b50611e4f92500383611b72565b565b90506000929192526020600020906000915b818310611e7c575050906020611e4f9282010138611e42565b6020919350806001915483858901015201910190918492611e63565b905060209250611e4f94915060ff191682840152151560051b82010138611e42565b8054821015610d8d5760005260206000200190600090565b519069ffffffffffffffffffff8216820361071757565b604051633fabe5a360e21b81529060a090829060049082906001600160a01b03165afa908115611f8a57600091611f3a575b506402540be4008102908082056402540be40014901517156106495790565b9060a0823d60a011611f82575b81611f5460a09383611b72565b81010312611f7f5750611f6681611ed2565b50611f78608060208301519201611ed2565b5038611f1b565b80fd5b3d9150611f47565b6040513d6000823e3d90fd5b90611fa090611ee9565b81810291818304149015171561064957670de0b6b3a764000090049056fe34f12f0f1e4333bd53b91b6978ad7e86b6c808b365aee7b09ea985ce7633c9e8a264697066735822122032de33eaca4bd94926465644cd697dd4110230a1d73a7724c8f9e28fbed1f2fd64736f6c634300081c0033",
  "devdoc": {
    "kind": "dev",
    "methods": {},
    "version": 1
  },
  "userdoc": {
    "kind": "user",
    "methods": {},
    "version": 1
  },
  "storageLayout": {
    "storage": [
      {
        "astId": 56,
        "contract": "contracts/Charity.sol:Charity",
        "label": "_status",
        "offset": 0,
        "slot": "0",
        "type": "t_uint256"
      },
      {
        "astId": 183,
        "contract": "contracts/Charity.sol:Charity",
        "label": "s_donations",
        "offset": 0,
        "slot": "1",
        "type": "t_array(t_struct(Donation)179_storage)dyn_storage"
      },
      {
        "astId": 187,
        "contract": "contracts/Charity.sol:Charity",
        "label": "s_donationHistories",
        "offset": 0,
        "slot": "2",
        "type": "t_array(t_struct(DonationHistory)131_storage)dyn_storage"
      },
      {
        "astId": 192,
        "contract": "contracts/Charity.sol:Charity",
        "label": "s_ownerToDonations",
        "offset": 0,
        "slot": "3",
        "type": "t_mapping(t_address,t_array(t_uint256)dyn_storage)"
      },
      {
        "astId": 196,
        "contract": "contracts/Charity.sol:Charity",
        "label": "s_idToDonations",
        "offset": 0,
        "slot": "4",
        "type": "t_mapping(t_bytes32,t_uint256)"
      },
      {
        "astId": 199,
        "contract": "contracts/Charity.sol:Charity",
        "label": "s_owner",
        "offset": 0,
        "slot": "5",
        "type": "t_array(t_address)dyn_storage"
      }
    ],
    "types": {
      "t_address": {
        "encoding": "inplace",
        "label": "address",
        "numberOfBytes": "20"
      },
      "t_array(t_address)dyn_storage": {
        "base": "t_address",
        "encoding": "dynamic_array",
        "label": "address[]",
        "numberOfBytes": "32"
      },
      "t_array(t_struct(Donation)179_storage)dyn_storage": {
        "base": "t_struct(Donation)179_storage",
        "encoding": "dynamic_array",
        "label": "struct Charity.Donation[]",
        "numberOfBytes": "32"
      },
      "t_array(t_struct(DonationHistory)131_storage)dyn_storage": {
        "base": "t_struct(DonationHistory)131_storage",
        "encoding": "dynamic_array",
        "label": "struct Charity.DonationHistory[]",
        "numberOfBytes": "32"
      },
      "t_array(t_uint256)dyn_storage": {
        "base": "t_uint256",
        "encoding": "dynamic_array",
        "label": "uint256[]",
        "numberOfBytes": "32"
      },
      "t_bool": {
        "encoding": "inplace",
        "label": "bool",
        "numberOfBytes": "1"
      },
      "t_bytes32": {
        "encoding": "inplace",
        "label": "bytes32",
        "numberOfBytes": "32"
      },
      "t_enum(DonationCategory)120": {
        "encoding": "inplace",
        "label": "enum Charity.DonationCategory",
        "numberOfBytes": "1"
      },
      "t_enum(DonationState)110": {
        "encoding": "inplace",
        "label": "enum Charity.DonationState",
        "numberOfBytes": "1"
      },
      "t_mapping(t_address,t_array(t_struct(DonationHistory)131_storage)dyn_storage)": {
        "encoding": "mapping",
        "key": "t_address",
        "label": "mapping(address => struct Charity.DonationHistory[])",
        "numberOfBytes": "32",
        "value": "t_array(t_struct(DonationHistory)131_storage)dyn_storage"
      },
      "t_mapping(t_address,t_array(t_uint256)dyn_storage)": {
        "encoding": "mapping",
        "key": "t_address",
        "label": "mapping(address => uint256[])",
        "numberOfBytes": "32",
        "value": "t_array(t_uint256)dyn_storage"
      },
      "t_mapping(t_address,t_bool)": {
        "encoding": "mapping",
        "key": "t_address",
        "label": "mapping(address => bool)",
        "numberOfBytes": "32",
        "value": "t_bool"
      },
      "t_mapping(t_address,t_uint256)": {
        "encoding": "mapping",
        "key": "t_address",
        "label": "mapping(address => uint256)",
        "numberOfBytes": "32",
        "value": "t_uint256"
      },
      "t_mapping(t_bytes32,t_uint256)": {
        "encoding": "mapping",
        "key": "t_bytes32",
        "label": "mapping(bytes32 => uint256)",
        "numberOfBytes": "32",
        "value": "t_uint256"
      },
      "t_string_storage": {
        "encoding": "bytes",
        "label": "string",
        "numberOfBytes": "32"
      },
      "t_struct(Donation)179_storage": {
        "encoding": "inplace",
        "label": "struct Charity.Donation",
        "members": [
          {
            "astId": 133,
            "contract": "contracts/Charity.sol:Charity",
            "label": "id",
            "offset": 0,
            "slot": "0",
            "type": "t_bytes32"
          },
          {
            "astId": 135,
            "contract": "contracts/Charity.sol:Charity",
            "label": "owner",
            "offset": 0,
            "slot": "1",
            "type": "t_address"
          },
          {
            "astId": 137,
            "contract": "contracts/Charity.sol:Charity",
            "label": "donationTarget",
            "offset": 0,
            "slot": "2",
            "type": "t_address"
          },
          {
            "astId": 139,
            "contract": "contracts/Charity.sol:Charity",
            "label": "title",
            "offset": 0,
            "slot": "3",
            "type": "t_string_storage"
          },
          {
            "astId": 141,
            "contract": "contracts/Charity.sol:Charity",
            "label": "priceTarget",
            "offset": 0,
            "slot": "4",
            "type": "t_uint256"
          },
          {
            "astId": 143,
            "contract": "contracts/Charity.sol:Charity",
            "label": "description",
            "offset": 0,
            "slot": "5",
            "type": "t_string_storage"
          },
          {
            "astId": 145,
            "contract": "contracts/Charity.sol:Charity",
            "label": "endTime",
            "offset": 0,
            "slot": "6",
            "type": "t_uint256"
          },
          {
            "astId": 148,
            "contract": "contracts/Charity.sol:Charity",
            "label": "state",
            "offset": 0,
            "slot": "7",
            "type": "t_enum(DonationState)110"
          },
          {
            "astId": 151,
            "contract": "contracts/Charity.sol:Charity",
            "label": "category",
            "offset": 1,
            "slot": "7",
            "type": "t_enum(DonationCategory)120"
          },
          {
            "astId": 153,
            "contract": "contracts/Charity.sol:Charity",
            "label": "refundable",
            "offset": 2,
            "slot": "7",
            "type": "t_bool"
          },
          {
            "astId": 155,
            "contract": "contracts/Charity.sol:Charity",
            "label": "refundMessage",
            "offset": 0,
            "slot": "8",
            "type": "t_string_storage"
          },
          {
            "astId": 157,
            "contract": "contracts/Charity.sol:Charity",
            "label": "donationRaised",
            "offset": 0,
            "slot": "9",
            "type": "t_uint256"
          },
          {
            "astId": 159,
            "contract": "contracts/Charity.sol:Charity",
            "label": "donationWithdrawed",
            "offset": 0,
            "slot": "10",
            "type": "t_uint256"
          },
          {
            "astId": 162,
            "contract": "contracts/Charity.sol:Charity",
            "label": "donater",
            "offset": 0,
            "slot": "11",
            "type": "t_array(t_address)dyn_storage"
          },
          {
            "astId": 164,
            "contract": "contracts/Charity.sol:Charity",
            "label": "imgUrl",
            "offset": 0,
            "slot": "12",
            "type": "t_string_storage"
          },
          {
            "astId": 170,
            "contract": "contracts/Charity.sol:Charity",
            "label": "donaterToDonateHistory",
            "offset": 0,
            "slot": "13",
            "type": "t_mapping(t_address,t_array(t_struct(DonationHistory)131_storage)dyn_storage)"
          },
          {
            "astId": 174,
            "contract": "contracts/Charity.sol:Charity",
            "label": "isDonater",
            "offset": 0,
            "slot": "14",
            "type": "t_mapping(t_address,t_bool)"
          },
          {
            "astId": 178,
            "contract": "contracts/Charity.sol:Charity",
            "label": "donaterToAmount",
            "offset": 0,
            "slot": "15",
            "type": "t_mapping(t_address,t_uint256)"
          }
        ],
        "numberOfBytes": "512"
      },
      "t_struct(DonationHistory)131_storage": {
        "encoding": "inplace",
        "label": "struct Charity.DonationHistory",
        "members": [
          {
            "astId": 122,
            "contract": "contracts/Charity.sol:Charity",
            "label": "donationId",
            "offset": 0,
            "slot": "0",
            "type": "t_bytes32"
          },
          {
            "astId": 124,
            "contract": "contracts/Charity.sol:Charity",
            "label": "donater",
            "offset": 0,
            "slot": "1",
            "type": "t_address"
          },
          {
            "astId": 126,
            "contract": "contracts/Charity.sol:Charity",
            "label": "amount",
            "offset": 0,
            "slot": "2",
            "type": "t_uint256"
          },
          {
            "astId": 128,
            "contract": "contracts/Charity.sol:Charity",
            "label": "message",
            "offset": 0,
            "slot": "3",
            "type": "t_string_storage"
          },
          {
            "astId": 130,
            "contract": "contracts/Charity.sol:Charity",
            "label": "timestamp",
            "offset": 0,
            "slot": "4",
            "type": "t_uint256"
          }
        ],
        "numberOfBytes": "160"
      },
      "t_uint256": {
        "encoding": "inplace",
        "label": "uint256",
        "numberOfBytes": "32"
      }
    }
  }
}